{"bytecode":"60a060405234801561001057600080fd5b50336080526080516106b461003760003960008181610105015261030601526106b46000f3fe60806040526004361061007f5760003560e01c8063a76568d01161004e578063a76568d01461013f578063b60d42881461008e578063dc0d3dff1461016c578063eb2aae5c1461018c5761008e565b80632cce0c60146100965780633ccfd60b146100be5780634eb52e32146100d35780638da5cb5b146100f35761008e565b3661008e5761008c6101a8565b005b61008c6101a8565b3480156100a257600080fd5b506100ab610271565b6040519081526020015b60405180910390f35b3480156100ca57600080fd5b5061008c6102fb565b3480156100df57600080fd5b506100ab6100ee36600461052f565b610448565b3480156100ff57600080fd5b506101277f000000000000000000000000000000000000000000000000000000000000000081565b6040516001600160a01b0390911681526020016100b5565b34801561014b57600080fd5b506100ab61015a366004610548565b60016020526000908152604090205481565b34801561017857600080fd5b5061012761018736600461052f565b61048b565b34801561019857600080fd5b506100ab671bc16d674ec8000081565b34671bc16d674ec800006101bb82610448565b101561020e5760405162461bcd60e51b815260206004820152601860248201527f4469646e27742073656e7420656e6f756768206d6f6e6579000000000000000060448201526064015b60405180910390fd5b60008054600181810183557f290decd9548b62a8d60345a988386fc84ba6bc95484008f6362f93160ef3e56390910180546001600160a01b03191633908117909155825260205260408120805483929061026990849061058e565b909155505050565b60008073d4a33860578de61dbabdc8bfdb98fd742fa7028e90506000816001600160a01b031663feaf968c6040518163ffffffff1660e01b815260040160a060405180830381865afa1580156102cb573d6000803e3d6000fd5b505050506040513d601f19601f820116820180604052508101906102ef91906105c6565b50919695505050505050565b336001600160a01b037f0000000000000000000000000000000000000000000000000000000000000000161461034457604051637e082d0560e01b815260040160405180910390fd5b60005b6000548110156103a05760006001600080848154811061036957610369610616565b60009182526020808320909101546001600160a01b03168352820192909252604001902055806103988161062c565b915050610347565b50604080516000808252602082019283905290516103be92906104b5565b50604051600090339047908381818185875af1925050503d8060008114610401576040519150601f19603f3d011682016040523d82523d6000602084013e610406565b606091505b50509050806104455760405162461bcd60e51b815260206004820152600b60248201526a18d85b1b0819985a5b195960aa1b6044820152606401610205565b50565b600080610453610271565b610462906402540be400610645565b90506000670de0b6b3a76400006104798386610645565b610483919061065c565b949350505050565b6000818154811061049b57600080fd5b6000918252602090912001546001600160a01b0316905081565b82805482825590600052602060002090810192821561050a579160200282015b8281111561050a57825182546001600160a01b0319166001600160a01b039091161782556020909201916001909101906104d5565b5061051692915061051a565b5090565b5b80821115610516576000815560010161051b565b60006020828403121561054157600080fd5b5035919050565b60006020828403121561055a57600080fd5b81356001600160a01b038116811461057157600080fd5b9392505050565b634e487b7160e01b600052601160045260246000fd5b808201808211156105a1576105a1610578565b92915050565b805169ffffffffffffffffffff811681146105c157600080fd5b919050565b600080600080600060a086880312156105de57600080fd5b6105e7866105a7565b945060208601519350604086015192506060860151915061060a608087016105a7565b90509295509295909350565b634e487b7160e01b600052603260045260246000fd5b60006001820161063e5761063e610578565b5060010190565b80820281158282048414176105a1576105a1610578565b60008261067957634e487b7160e01b600052601260045260246000fd5b50049056fea2646970667358221220c2554a3a8a6a72744f7dae5f009a3af1003cef5268a3735350815a182a5fba0164736f6c63430008110033","bytecodeSha1":"07a8abe3cabea3956530a5df2c1b74ffbd4c92dd","type":"contract","abi":[{"inputs":[],"stateMutability":"nonpayable","type":"constructor","name":"constructor"},{"inputs":[],"name":"Notowner","type":"error"},{"stateMutability":"payable","type":"fallback"},{"inputs":[{"internalType":"uint256","name":"value_wei","type":"uint256"}],"name":"convert_eth_to_usd","outputs":[{"internalType":"uint256","name":"","type":"uint256"}],"stateMutability":"view","type":"function"},{"inputs":[],"name":"eth_to_usd","outputs":[{"internalType":"uint256","name":"","type":"uint256"}],"stateMutability":"view","type":"function"},{"inputs":[],"name":"fund","outputs":[],"stateMutability":"payable","type":"function"},{"inputs":[{"internalType":"address","name":"","type":"address"}],"name":"funder_amount","outputs":[{"internalType":"uint256","name":"","type":"uint256"}],"stateMutability":"view","type":"function"},{"inputs":[{"internalType":"uint256","name":"","type":"uint256"}],"name":"funders","outputs":[{"internalType":"address","name":"","type":"address"}],"stateMutability":"view","type":"function"},{"inputs":[],"name":"min_USD","outputs":[{"internalType":"uint256","name":"","type":"uint256"}],"stateMutability":"view","type":"function"},{"inputs":[],"name":"owner","outputs":[{"internalType":"address","name":"","type":"address"}],"stateMutability":"view","type":"function"},{"inputs":[],"name":"withdraw","outputs":[],"stateMutability":"nonpayable","type":"function"},{"stateMutability":"payable","type":"receive"}],"compiler":{"version":"0.8.17+commit.8df45f5f","evm_version":"istanbul","optimizer":{"enabled":true,"runs":200}},"contractName":"Fundme","language":"Solidity","natspec":{"methods":{},"kind":"dev","version":1},"opcodes":"PUSH1 0x80 PUSH1 0x40 MSTORE PUSH1 0x4 CALLDATASIZE LT PUSH2 0x7F JUMPI PUSH1 0x0 CALLDATALOAD PUSH1 0xE0 SHR DUP1 PUSH4 0xA76568D0 GT PUSH2 0x4E JUMPI DUP1 PUSH4 0xA76568D0 EQ PUSH2 0x13F JUMPI DUP1 PUSH4 0xB60D4288 EQ PUSH2 0x8E JUMPI DUP1 PUSH4 0xDC0D3DFF EQ PUSH2 0x16C JUMPI DUP1 PUSH4 0xEB2AAE5C EQ PUSH2 0x18C JUMPI PUSH2 0x8E JUMP JUMPDEST DUP1 PUSH4 0x2CCE0C60 EQ PUSH2 0x96 JUMPI DUP1 PUSH4 0x3CCFD60B EQ PUSH2 0xBE JUMPI DUP1 PUSH4 0x4EB52E32 EQ PUSH2 0xD3 JUMPI DUP1 PUSH4 0x8DA5CB5B EQ PUSH2 0xF3 JUMPI PUSH2 0x8E JUMP JUMPDEST CALLDATASIZE PUSH2 0x8E JUMPI PUSH2 0x8C PUSH2 0x1A8 JUMP JUMPDEST STOP JUMPDEST PUSH2 0x8C PUSH2 0x1A8 JUMP JUMPDEST CALLVALUE DUP1 ISZERO PUSH2 0xA2 JUMPI PUSH1 0x0 DUP1 REVERT JUMPDEST POP PUSH2 0xAB PUSH2 0x271 JUMP JUMPDEST PUSH1 0x40 MLOAD SWAP1 DUP2 MSTORE PUSH1 0x20 ADD JUMPDEST PUSH1 0x40 MLOAD DUP1 SWAP2 SUB SWAP1 RETURN JUMPDEST CALLVALUE DUP1 ISZERO PUSH2 0xCA JUMPI PUSH1 0x0 DUP1 REVERT JUMPDEST POP PUSH2 0x8C PUSH2 0x2FB JUMP JUMPDEST CALLVALUE DUP1 ISZERO PUSH2 0xDF JUMPI PUSH1 0x0 DUP1 REVERT JUMPDEST POP PUSH2 0xAB PUSH2 0xEE CALLDATASIZE PUSH1 0x4 PUSH2 0x52F JUMP JUMPDEST PUSH2 0x448 JUMP JUMPDEST CALLVALUE DUP1 ISZERO PUSH2 0xFF JUMPI PUSH1 0x0 DUP1 REVERT JUMPDEST POP PUSH2 0x127 PUSH32 0x0 DUP2 JUMP JUMPDEST PUSH1 0x40 MLOAD PUSH1 0x1 PUSH1 0x1 PUSH1 0xA0 SHL SUB SWAP1 SWAP2 AND DUP2 MSTORE PUSH1 0x20 ADD PUSH2 0xB5 JUMP JUMPDEST CALLVALUE DUP1 ISZERO PUSH2 0x14B JUMPI PUSH1 0x0 DUP1 REVERT JUMPDEST POP PUSH2 0xAB PUSH2 0x15A CALLDATASIZE PUSH1 0x4 PUSH2 0x548 JUMP JUMPDEST PUSH1 0x1 PUSH1 0x20 MSTORE PUSH1 0x0 SWAP1 DUP2 MSTORE PUSH1 0x40 SWAP1 KECCAK256 SLOAD DUP2 JUMP JUMPDEST CALLVALUE DUP1 ISZERO PUSH2 0x178 JUMPI PUSH1 0x0 DUP1 REVERT JUMPDEST POP PUSH2 0x127 PUSH2 0x187 CALLDATASIZE PUSH1 0x4 PUSH2 0x52F JUMP JUMPDEST PUSH2 0x48B JUMP JUMPDEST CALLVALUE DUP1 ISZERO PUSH2 0x198 JUMPI PUSH1 0x0 DUP1 REVERT JUMPDEST POP PUSH2 0xAB PUSH8 0x1BC16D674EC80000 DUP2 JUMP JUMPDEST CALLVALUE PUSH8 0x1BC16D674EC80000 PUSH2 0x1BB DUP3 PUSH2 0x448 JUMP JUMPDEST LT ISZERO PUSH2 0x20E JUMPI PUSH1 0x40 MLOAD PUSH3 0x461BCD PUSH1 0xE5 SHL DUP2 MSTORE PUSH1 0x20 PUSH1 0x4 DUP3 ADD MSTORE PUSH1 0x18 PUSH1 0x24 DUP3 ADD MSTORE PUSH32 0x4469646E27742073656E7420656E6F756768206D6F6E65790000000000000000 PUSH1 0x44 DUP3 ADD MSTORE PUSH1 0x64 ADD JUMPDEST PUSH1 0x40 MLOAD DUP1 SWAP2 SUB SWAP1 REVERT JUMPDEST PUSH1 0x0 DUP1 SLOAD PUSH1 0x1 DUP2 DUP2 ADD DUP4 SSTORE PUSH32 0x290DECD9548B62A8D60345A988386FC84BA6BC95484008F6362F93160EF3E563 SWAP1 SWAP2 ADD DUP1 SLOAD PUSH1 0x1 PUSH1 0x1 PUSH1 0xA0 SHL SUB NOT AND CALLER SWAP1 DUP2 OR SWAP1 SWAP2 SSTORE DUP3 MSTORE PUSH1 0x20 MSTORE PUSH1 0x40 DUP2 KECCAK256 DUP1 SLOAD DUP4 SWAP3 SWAP1 PUSH2 0x269 SWAP1 DUP5 SWAP1 PUSH2 0x58E JUMP JUMPDEST SWAP1 SWAP2 SSTORE POP POP POP JUMP JUMPDEST PUSH1 0x0 DUP1 PUSH20 0xD4A33860578DE61DBABDC8BFDB98FD742FA7028E SWAP1 POP PUSH1 0x0 DUP2 PUSH1 0x1 PUSH1 0x1 PUSH1 0xA0 SHL SUB AND PUSH4 0xFEAF968C PUSH1 0x40 MLOAD DUP2 PUSH4 0xFFFFFFFF AND PUSH1 0xE0 SHL DUP2 MSTORE PUSH1 0x4 ADD PUSH1 0xA0 PUSH1 0x40 MLOAD DUP1 DUP4 SUB DUP2 DUP7 GAS STATICCALL ISZERO DUP1 ISZERO PUSH2 0x2CB JUMPI RETURNDATASIZE PUSH1 0x0 DUP1 RETURNDATACOPY RETURNDATASIZE PUSH1 0x0 REVERT JUMPDEST POP POP POP POP PUSH1 0x40 MLOAD RETURNDATASIZE PUSH1 0x1F NOT PUSH1 0x1F DUP3 ADD AND DUP3 ADD DUP1 PUSH1 0x40 MSTORE POP DUP2 ADD SWAP1 PUSH2 0x2EF SWAP2 SWAP1 PUSH2 0x5C6 JUMP JUMPDEST POP SWAP2 SWAP7 SWAP6 POP POP POP POP POP POP JUMP JUMPDEST CALLER PUSH1 0x1 PUSH1 0x1 PUSH1 0xA0 SHL SUB PUSH32 0x0 AND EQ PUSH2 0x344 JUMPI PUSH1 0x40 MLOAD PUSH4 0x7E082D05 PUSH1 0xE0 SHL DUP2 MSTORE PUSH1 0x4 ADD PUSH1 0x40 MLOAD DUP1 SWAP2 SUB SWAP1 REVERT JUMPDEST PUSH1 0x0 JUMPDEST PUSH1 0x0 SLOAD DUP2 LT ISZERO PUSH2 0x3A0 JUMPI PUSH1 0x0 PUSH1 0x1 PUSH1 0x0 DUP1 DUP5 DUP2 SLOAD DUP2 LT PUSH2 0x369 JUMPI PUSH2 0x369 PUSH2 0x616 JUMP JUMPDEST PUSH1 0x0 SWAP2 DUP3 MSTORE PUSH1 0x20 DUP1 DUP4 KECCAK256 SWAP1 SWAP2 ADD SLOAD PUSH1 0x1 PUSH1 0x1 PUSH1 0xA0 SHL SUB AND DUP4 MSTORE DUP3 ADD SWAP3 SWAP1 SWAP3 MSTORE PUSH1 0x40 ADD SWAP1 KECCAK256 SSTORE DUP1 PUSH2 0x398 DUP2 PUSH2 0x62C JUMP JUMPDEST SWAP2 POP POP PUSH2 0x347 JUMP JUMPDEST POP PUSH1 0x40 DUP1 MLOAD PUSH1 0x0 DUP1 DUP3 MSTORE PUSH1 0x20 DUP3 ADD SWAP3 DUP4 SWAP1 MSTORE SWAP1 MLOAD PUSH2 0x3BE SWAP3 SWAP1 PUSH2 0x4B5 JUMP JUMPDEST POP PUSH1 0x40 MLOAD PUSH1 0x0 SWAP1 CALLER SWAP1 SELFBALANCE SWAP1 DUP4 DUP2 DUP2 DUP2 DUP6 DUP8 GAS CALL SWAP3 POP POP POP RETURNDATASIZE DUP1 PUSH1 0x0 DUP2 EQ PUSH2 0x401 JUMPI PUSH1 0x40 MLOAD SWAP2 POP PUSH1 0x1F NOT PUSH1 0x3F RETURNDATASIZE ADD AND DUP3 ADD PUSH1 0x40 MSTORE RETURNDATASIZE DUP3 MSTORE RETURNDATASIZE PUSH1 0x0 PUSH1 0x20 DUP5 ADD RETURNDATACOPY PUSH2 0x406 JUMP JUMPDEST PUSH1 0x60 SWAP2 POP JUMPDEST POP POP SWAP1 POP DUP1 PUSH2 0x445 JUMPI PUSH1 0x40 MLOAD PUSH3 0x461BCD PUSH1 0xE5 SHL DUP2 MSTORE PUSH1 0x20 PUSH1 0x4 DUP3 ADD MSTORE PUSH1 0xB PUSH1 0x24 DUP3 ADD MSTORE PUSH11 0x18D85B1B0819985A5B1959 PUSH1 0xAA SHL PUSH1 0x44 DUP3 ADD MSTORE PUSH1 0x64 ADD PUSH2 0x205 JUMP JUMPDEST POP JUMP JUMPDEST PUSH1 0x0 DUP1 PUSH2 0x453 PUSH2 0x271 JUMP JUMPDEST PUSH2 0x462 SWAP1 PUSH5 0x2540BE400 PUSH2 0x645 JUMP JUMPDEST SWAP1 POP PUSH1 0x0 PUSH8 0xDE0B6B3A7640000 PUSH2 0x479 DUP4 DUP7 PUSH2 0x645 JUMP JUMPDEST PUSH2 0x483 SWAP2 SWAP1 PUSH2 0x65C JUMP JUMPDEST SWAP5 SWAP4 POP POP POP POP JUMP JUMPDEST PUSH1 0x0 DUP2 DUP2 SLOAD DUP2 LT PUSH2 0x49B JUMPI PUSH1 0x0 DUP1 REVERT JUMPDEST PUSH1 0x0 SWAP2 DUP3 MSTORE PUSH1 0x20 SWAP1 SWAP2 KECCAK256 ADD SLOAD PUSH1 0x1 PUSH1 0x1 PUSH1 0xA0 SHL SUB AND SWAP1 POP DUP2 JUMP JUMPDEST DUP3 DUP1 SLOAD DUP3 DUP3 SSTORE SWAP1 PUSH1 0x0 MSTORE PUSH1 0x20 PUSH1 0x0 KECCAK256 SWAP1 DUP2 ADD SWAP3 DUP3 ISZERO PUSH2 0x50A JUMPI SWAP2 PUSH1 0x20 MUL DUP3 ADD JUMPDEST DUP3 DUP2 GT ISZERO PUSH2 0x50A JUMPI DUP3 MLOAD DUP3 SLOAD PUSH1 0x1 PUSH1 0x1 PUSH1 0xA0 SHL SUB NOT AND PUSH1 0x1 PUSH1 0x1 PUSH1 0xA0 SHL SUB SWAP1 SWAP2 AND OR DUP3 SSTORE PUSH1 0x20 SWAP1 SWAP3 ADD SWAP2 PUSH1 0x1 SWAP1 SWAP2 ADD SWAP1 PUSH2 0x4D5 JUMP JUMPDEST POP PUSH2 0x516 SWAP3 SWAP2 POP PUSH2 0x51A JUMP JUMPDEST POP SWAP1 JUMP JUMPDEST JUMPDEST DUP1 DUP3 GT ISZERO PUSH2 0x516 JUMPI PUSH1 0x0 DUP2 SSTORE PUSH1 0x1 ADD PUSH2 0x51B JUMP JUMPDEST PUSH1 0x0 PUSH1 0x20 DUP3 DUP5 SUB SLT ISZERO PUSH2 0x541 JUMPI PUSH1 0x0 DUP1 REVERT JUMPDEST POP CALLDATALOAD SWAP2 SWAP1 POP JUMP JUMPDEST PUSH1 0x0 PUSH1 0x20 DUP3 DUP5 SUB SLT ISZERO PUSH2 0x55A JUMPI PUSH1 0x0 DUP1 REVERT JUMPDEST DUP2 CALLDATALOAD PUSH1 0x1 PUSH1 0x1 PUSH1 0xA0 SHL SUB DUP2 AND DUP2 EQ PUSH2 0x571 JUMPI PUSH1 0x0 DUP1 REVERT JUMPDEST SWAP4 SWAP3 POP POP POP JUMP JUMPDEST PUSH4 0x4E487B71 PUSH1 0xE0 SHL PUSH1 0x0 MSTORE PUSH1 0x11 PUSH1 0x4 MSTORE PUSH1 0x24 PUSH1 0x0 REVERT JUMPDEST DUP1 DUP3 ADD DUP1 DUP3 GT ISZERO PUSH2 0x5A1 JUMPI PUSH2 0x5A1 PUSH2 0x578 JUMP JUMPDEST SWAP3 SWAP2 POP POP JUMP JUMPDEST DUP1 MLOAD PUSH10 0xFFFFFFFFFFFFFFFFFFFF DUP2 AND DUP2 EQ PUSH2 0x5C1 JUMPI PUSH1 0x0 DUP1 REVERT JUMPDEST SWAP2 SWAP1 POP JUMP JUMPDEST PUSH1 0x0 DUP1 PUSH1 0x0 DUP1 PUSH1 0x0 PUSH1 0xA0 DUP7 DUP9 SUB SLT ISZERO PUSH2 0x5DE JUMPI PUSH1 0x0 DUP1 REVERT JUMPDEST PUSH2 0x5E7 DUP7 PUSH2 0x5A7 JUMP JUMPDEST SWAP5 POP PUSH1 0x20 DUP7 ADD MLOAD SWAP4 POP PUSH1 0x40 DUP7 ADD MLOAD SWAP3 POP PUSH1 0x60 DUP7 ADD MLOAD SWAP2 POP PUSH2 0x60A PUSH1 0x80 DUP8 ADD PUSH2 0x5A7 JUMP JUMPDEST SWAP1 POP SWAP3 SWAP6 POP SWAP3 SWAP6 SWAP1 SWAP4 POP JUMP JUMPDEST PUSH4 0x4E487B71 PUSH1 0xE0 SHL PUSH1 0x0 MSTORE PUSH1 0x32 PUSH1 0x4 MSTORE PUSH1 0x24 PUSH1 0x0 REVERT JUMPDEST PUSH1 0x0 PUSH1 0x1 DUP3 ADD PUSH2 0x63E JUMPI PUSH2 0x63E PUSH2 0x578 JUMP JUMPDEST POP PUSH1 0x1 ADD SWAP1 JUMP JUMPDEST DUP1 DUP3 MUL DUP2 ISZERO DUP3 DUP3 DIV DUP5 EQ OR PUSH2 0x5A1 JUMPI PUSH2 0x5A1 PUSH2 0x578 JUMP JUMPDEST PUSH1 0x0 DUP3 PUSH2 0x679 JUMPI PUSH4 0x4E487B71 PUSH1 0xE0 SHL PUSH1 0x0 MSTORE PUSH1 0x12 PUSH1 0x4 MSTORE PUSH1 0x24 PUSH1 0x0 REVERT JUMPDEST POP DIV SWAP1 JUMP INVALID LOG2 PUSH5 0x6970667358 0x22 SLT KECCAK256 0xC2 SSTORE 0x4A GASPRICE DUP11 PUSH11 0x72744F7DAE5F009A3AF100 EXTCODECOPY 0xEF MSTORE PUSH9 0xA3735350815A182A5F 0xBA ADD PUSH5 0x736F6C6343 STOP ADDMOD GT STOP CALLER ","sha1":"3665e7cf20383b038e2bff4cdb219e81121469eb","source":"// SPDX-License-Identifier: MIT\n\npragma solidity ^0.8.0;\n\n//in this contract i am going to create a funding function in which you can give money to me but i want money more\n//than only 50 dollars -> so i want to convert that $50 to equivalent amount of ether or wei or wei that we are going to\n//give in the value section-> so how will i get todays ethereum price->so i want to connect to oracles or chainlink\n//which gives me the data what i want -> with that i am going to do basic math and uint and int type casting\n\n//now we are going to verify this contract in etherscan for that etherscan it cannot unzip or read @chainlink so we need to paste the whole code here but brownie has a cool feature\n// for that we need to create the API key from etherscan\nimport \"@chainlink/contracts/src/v0.8/interfaces/AggregatorV3Interface.sol\"; //remix can read this but brownie cannot so add dependies and remapping from brownie-config.yaml\n\n// import \"./Converterlib.sol\";\n\nerror Notowner(); // gas efficiency\n\ncontract Fundme {\n    // using Converter for uint256;\n    uint256 public constant min_USD = 2 * 1e18; //gas efficiency\n    address[] public funders; // an array to store who all funded to our System\n    mapping(address => uint256) public funder_amount; // map to store how much who funded\n    address public immutable owner; //gas efficiency\n\n    constructor() {\n        owner = msg.sender;\n    }\n\n    function convert_eth_to_usd(uint256 value_wei)\n        public\n        view\n        returns (uint256)\n    {\n        uint256 one_eth_usd = eth_to_usd() * 1e10;\n        uint256 total_usd = (value_wei * one_eth_usd) / 1e18; //because we are multiplying with two 10e18 so we need to divide with one 10e18\n        return total_usd;\n    }\n\n    function eth_to_usd() public view returns (uint256) {\n        //for this function we need to connect with chainlink to get data so use priceConsumerV3.sol in https://docs.chain.link/docs/data-feeds/price-feeds/\n        //-> in that we imported that set of code from github using npm\n        //we need address of goerli in which this priceconverted is deployed - Address: 0xD4a33860578De61DBAbDc8BFdb98FD742fA7028e\n        //then we need the ABI - so we are importing the code from the github and we are using\n        AggregatorV3Interface priceFeed = AggregatorV3Interface(\n            0xD4a33860578De61DBAbDc8BFdb98FD742fA7028e\n        );\n        (\n            ,\n            /*uint80 roundID*/\n            int256 price, /*uint startedAt*/ /*uint timeStamp*/ /*uint80 answeredInRound*/\n            ,\n            ,\n\n        ) = priceFeed.latestRoundData();\n        return uint256(price); //typecasting because msg.value is in the form of uint so we want to maintain uint and this returns with 8 decimal place appended with it\n    }\n\n    function fund() public payable {\n        //we are adding funds to the contract\n        uint256 value_wei = msg.value;\n        // require(value_wei>=min_USD,\"Didn't sent enough money\");\n        require(\n            convert_eth_to_usd(value_wei) >= min_USD,\n            \"Didn't sent enough money\"\n        );\n        // require(\n        //     value_wei.convert_eth_to_usd() >= min_USD,\n        //     \"Didn't sent enough money\"\n        // ); //because of this error UndeployedLibrary: Contract requires 'Converter' library, but it has not been deployed yet\n        funders.push(msg.sender);\n        funder_amount[msg.sender] += value_wei;\n    }\n\n    function withdraw() public onlyOwner {\n        for (uint256 i = 0; i < funders.length; i++) {\n            funder_amount[funders[i]] = 0;\n        }\n        funders = new address[](0); //this tell the array has zero objects\n        //now we will reduce that money from the contract also\n        // there are three method to do that 1.transfer 2.send 3.call\n        //transfer (2300 gas, throws error)\n        // send (2300 gas, returns bool)\n        // call (forward all gas or set gas, returns bool) return bool and calldata ->we are going to use this only\n        // // transfer\n        // payable(msg.sender).transfer(address(this).balance);\n        // // send\n        // bool sendSuccess = payable(msg.sender).send(address(this).balance);\n        // require(sendSuccess, \"Send failed\");\n        // call\n        (bool callSuccess, ) = payable(msg.sender).call{\n            value: address(this).balance\n        }(\"\");\n        require(callSuccess, \"call failed\");\n    }\n\n    modifier onlyOwner() {\n        //require(msg.sender== owner,\"only owner can access this part of contract\");\n        if (msg.sender != owner) revert Notowner();\n        _;\n    }\n\n    //this recieve and fallback used to use from metamask itself it fund itself is not called\n    receive() external payable {\n        fund();\n    }\n\n    fallback() external payable {\n        fund();\n    }\n}\n","sourcePath":"contracts/Fundme.sol","deployment":{"address":"0xc607fCaA18Ee96CA0e2405b9639B626dF6E85a20","chainid":"5","blockHeight":7939895}}