{
  "abi": [
    {
      "inputs": [
        {
          "internalType": "uint256",
          "name": "value_wei",
          "type": "uint256"
        }
      ],
      "name": "convert_eth_to_usd",
      "outputs": [
        {
          "internalType": "uint256",
          "name": "",
          "type": "uint256"
        }
      ],
      "stateMutability": "view",
      "type": "function"
    },
    {
      "inputs": [],
      "name": "eth_to_usd",
      "outputs": [
        {
          "internalType": "uint256",
          "name": "",
          "type": "uint256"
        }
      ],
      "stateMutability": "view",
      "type": "function"
    }
  ],
  "bytecode": "61024a61003a600b82828239805160001a60731461002d57634e487b7160e01b600052600060045260246000fd5b30600052607381538281f3fe73000000000000000000000000000000000000000030146080604052600436106100405760003560e01c80632cce0c60146100455780634eb52e321461005f575b600080fd5b61004d610072565b60405190815260200160405180910390f35b61004d61006d36600461013f565b6100fc565b60008073d4a33860578de61dbabdc8bfdb98fd742fa7028e90506000816001600160a01b031663feaf968c6040518163ffffffff1660e01b815260040160a060405180830381865afa1580156100cc573d6000803e3d6000fd5b505050506040513d601f19601f820116820180604052508101906100f09190610177565b50919695505050505050565b600080610107610072565b610116906402540be4006101c7565b90506000670de0b6b3a764000061012d83866101c7565b61013791906101f2565b949350505050565b60006020828403121561015157600080fd5b5035919050565b805169ffffffffffffffffffff8116811461017257600080fd5b919050565b600080600080600060a0868803121561018f57600080fd5b61019886610158565b94506020860151935060408601519250606086015191506101bb60808701610158565b90509295509295909350565b80820281158282048414176101ec57634e487b7160e01b600052601160045260246000fd5b92915050565b60008261020f57634e487b7160e01b600052601260045260246000fd5b50049056fea2646970667358221220c8739528bfc6ae14547b0d00bed54cd6f71c309b5a7794482a1f2c4f8af2021864736f6c63430008110033",
  "bytecodeSha1": "a1eca39eba4db90d1ad809cf15b294c4886601be",
  "compiler": {
    "evm_version": "istanbul",
    "optimizer": {
      "enabled": true,
      "runs": 200
    },
    "version": "0.8.17+commit.8df45f5f"
  },
  "contractName": "Converter",
  "language": "Solidity",
  "natspec": {
    "kind": "dev",
    "methods": {},
    "version": 1
  },
  "opcodes": "PUSH20 0x0 ADDRESS EQ PUSH1 0x80 PUSH1 0x40 MSTORE PUSH1 0x4 CALLDATASIZE LT PUSH2 0x40 JUMPI PUSH1 0x0 CALLDATALOAD PUSH1 0xE0 SHR DUP1 PUSH4 0x2CCE0C60 EQ PUSH2 0x45 JUMPI DUP1 PUSH4 0x4EB52E32 EQ PUSH2 0x5F JUMPI JUMPDEST PUSH1 0x0 DUP1 REVERT JUMPDEST PUSH2 0x4D PUSH2 0x72 JUMP JUMPDEST PUSH1 0x40 MLOAD SWAP1 DUP2 MSTORE PUSH1 0x20 ADD PUSH1 0x40 MLOAD DUP1 SWAP2 SUB SWAP1 RETURN JUMPDEST PUSH2 0x4D PUSH2 0x6D CALLDATASIZE PUSH1 0x4 PUSH2 0x13F JUMP JUMPDEST PUSH2 0xFC JUMP JUMPDEST PUSH1 0x0 DUP1 PUSH20 0xD4A33860578DE61DBABDC8BFDB98FD742FA7028E SWAP1 POP PUSH1 0x0 DUP2 PUSH1 0x1 PUSH1 0x1 PUSH1 0xA0 SHL SUB AND PUSH4 0xFEAF968C PUSH1 0x40 MLOAD DUP2 PUSH4 0xFFFFFFFF AND PUSH1 0xE0 SHL DUP2 MSTORE PUSH1 0x4 ADD PUSH1 0xA0 PUSH1 0x40 MLOAD DUP1 DUP4 SUB DUP2 DUP7 GAS STATICCALL ISZERO DUP1 ISZERO PUSH2 0xCC JUMPI RETURNDATASIZE PUSH1 0x0 DUP1 RETURNDATACOPY RETURNDATASIZE PUSH1 0x0 REVERT JUMPDEST POP POP POP POP PUSH1 0x40 MLOAD RETURNDATASIZE PUSH1 0x1F NOT PUSH1 0x1F DUP3 ADD AND DUP3 ADD DUP1 PUSH1 0x40 MSTORE POP DUP2 ADD SWAP1 PUSH2 0xF0 SWAP2 SWAP1 PUSH2 0x177 JUMP JUMPDEST POP SWAP2 SWAP7 SWAP6 POP POP POP POP POP POP JUMP JUMPDEST PUSH1 0x0 DUP1 PUSH2 0x107 PUSH2 0x72 JUMP JUMPDEST PUSH2 0x116 SWAP1 PUSH5 0x2540BE400 PUSH2 0x1C7 JUMP JUMPDEST SWAP1 POP PUSH1 0x0 PUSH8 0xDE0B6B3A7640000 PUSH2 0x12D DUP4 DUP7 PUSH2 0x1C7 JUMP JUMPDEST PUSH2 0x137 SWAP2 SWAP1 PUSH2 0x1F2 JUMP JUMPDEST SWAP5 SWAP4 POP POP POP POP JUMP JUMPDEST PUSH1 0x0 PUSH1 0x20 DUP3 DUP5 SUB SLT ISZERO PUSH2 0x151 JUMPI PUSH1 0x0 DUP1 REVERT JUMPDEST POP CALLDATALOAD SWAP2 SWAP1 POP JUMP JUMPDEST DUP1 MLOAD PUSH10 0xFFFFFFFFFFFFFFFFFFFF DUP2 AND DUP2 EQ PUSH2 0x172 JUMPI PUSH1 0x0 DUP1 REVERT JUMPDEST SWAP2 SWAP1 POP JUMP JUMPDEST PUSH1 0x0 DUP1 PUSH1 0x0 DUP1 PUSH1 0x0 PUSH1 0xA0 DUP7 DUP9 SUB SLT ISZERO PUSH2 0x18F JUMPI PUSH1 0x0 DUP1 REVERT JUMPDEST PUSH2 0x198 DUP7 PUSH2 0x158 JUMP JUMPDEST SWAP5 POP PUSH1 0x20 DUP7 ADD MLOAD SWAP4 POP PUSH1 0x40 DUP7 ADD MLOAD SWAP3 POP PUSH1 0x60 DUP7 ADD MLOAD SWAP2 POP PUSH2 0x1BB PUSH1 0x80 DUP8 ADD PUSH2 0x158 JUMP JUMPDEST SWAP1 POP SWAP3 SWAP6 POP SWAP3 SWAP6 SWAP1 SWAP4 POP JUMP JUMPDEST DUP1 DUP3 MUL DUP2 ISZERO DUP3 DUP3 DIV DUP5 EQ OR PUSH2 0x1EC JUMPI PUSH4 0x4E487B71 PUSH1 0xE0 SHL PUSH1 0x0 MSTORE PUSH1 0x11 PUSH1 0x4 MSTORE PUSH1 0x24 PUSH1 0x0 REVERT JUMPDEST SWAP3 SWAP2 POP POP JUMP JUMPDEST PUSH1 0x0 DUP3 PUSH2 0x20F JUMPI PUSH4 0x4E487B71 PUSH1 0xE0 SHL PUSH1 0x0 MSTORE PUSH1 0x12 PUSH1 0x4 MSTORE PUSH1 0x24 PUSH1 0x0 REVERT JUMPDEST POP DIV SWAP1 JUMP INVALID LOG2 PUSH5 0x6970667358 0x22 SLT KECCAK256 0xC8 PUSH20 0x9528BFC6AE14547B0D00BED54CD6F71C309B5A77 SWAP5 BASEFEE 0x2A 0x1F 0x2C 0x4F DUP11 CALLCODE MUL XOR PUSH5 0x736F6C6343 STOP ADDMOD GT STOP CALLER ",
  "sha1": "c7686ba1165fed2f2d81a294b8b4d920a5d3f3af",
  "source": "// SPDX-License-Identifier: MIT\n\n//this is just to import the library function demo but in this python course again i am going to merge it in the fundme itself\n// because it is creating a new json file and i dont know how to merge it\n// ***UndeployedLibrary: Contract requires 'Converter' library, but it has not been deployed yet***\n\npragma solidity ^0.8.0;\n\nimport \"@chainlink/contracts/src/v0.8/interfaces/AggregatorV3Interface.sol\"; //remix can read this but brownie cannot so add dependies and remapping from brownie-config.yaml\n\nlibrary Converter {\n    function convert_eth_to_usd(uint256 value_wei)\n        public\n        view\n        returns (uint256)\n    {\n        uint256 one_eth_usd = eth_to_usd() * 1e10;\n        uint256 total_usd = (value_wei * one_eth_usd) / 1e18; //because we are multiplying with two 10e18 so we need to divide with one 10e18\n        return total_usd;\n    }\n\n    function eth_to_usd() public view returns (uint256) {\n        //for this function we need to connect with chainlink to get data so use priceConsumerV3.sol in https://docs.chain.link/docs/data-feeds/price-feeds/\n        //-> in that we imported that set of code from github using npm\n        //we need address of goerli in which this priceconverted is deployed - Address: 0xD4a33860578De61DBAbDc8BFdb98FD742fA7028e\n        //then we need the ABI - so we are importing the code from the github and we are using\n        AggregatorV3Interface priceFeed = AggregatorV3Interface(\n            0xD4a33860578De61DBAbDc8BFdb98FD742fA7028e\n        );\n        (\n            ,\n            /*uint80 roundID*/\n            int256 price, /*uint startedAt*/ /*uint timeStamp*/ /*uint80 answeredInRound*/\n            ,\n            ,\n\n        ) = priceFeed.latestRoundData();\n        return uint256(price); //typecasting because msg.value is in the form of uint so we want to maintain uint and this returns with 8 decimal place appended with it\n    }\n}\n",
  "sourcePath": "contracts/Converterlib.sol",
  "type": "library"
}