{
  "abi": [
    {
      "inputs": [
        {
          "internalType": "address",
          "name": "_pricefeed",
          "type": "address"
        }
      ],
      "stateMutability": "nonpayable",
      "type": "constructor"
    },
    {
      "inputs": [],
      "name": "Notowner",
      "type": "error"
    },
    {
      "stateMutability": "payable",
      "type": "fallback"
    },
    {
      "inputs": [
        {
          "internalType": "uint256",
          "name": "value_wei",
          "type": "uint256"
        }
      ],
      "name": "convert_eth_to_usd",
      "outputs": [
        {
          "internalType": "uint256",
          "name": "",
          "type": "uint256"
        }
      ],
      "stateMutability": "view",
      "type": "function"
    },
    {
      "inputs": [],
      "name": "eth_to_usd",
      "outputs": [
        {
          "internalType": "uint256",
          "name": "",
          "type": "uint256"
        }
      ],
      "stateMutability": "view",
      "type": "function"
    },
    {
      "inputs": [],
      "name": "fund",
      "outputs": [],
      "stateMutability": "payable",
      "type": "function"
    },
    {
      "inputs": [
        {
          "internalType": "address",
          "name": "",
          "type": "address"
        }
      ],
      "name": "funder_amount",
      "outputs": [
        {
          "internalType": "uint256",
          "name": "",
          "type": "uint256"
        }
      ],
      "stateMutability": "view",
      "type": "function"
    },
    {
      "inputs": [
        {
          "internalType": "uint256",
          "name": "",
          "type": "uint256"
        }
      ],
      "name": "funders",
      "outputs": [
        {
          "internalType": "address",
          "name": "",
          "type": "address"
        }
      ],
      "stateMutability": "view",
      "type": "function"
    },
    {
      "inputs": [],
      "name": "min_USD",
      "outputs": [
        {
          "internalType": "uint256",
          "name": "",
          "type": "uint256"
        }
      ],
      "stateMutability": "view",
      "type": "function"
    },
    {
      "inputs": [],
      "name": "owner",
      "outputs": [
        {
          "internalType": "address",
          "name": "",
          "type": "address"
        }
      ],
      "stateMutability": "view",
      "type": "function"
    },
    {
      "inputs": [],
      "name": "priceFeed",
      "outputs": [
        {
          "internalType": "contract AggregatorV3Interface",
          "name": "",
          "type": "address"
        }
      ],
      "stateMutability": "view",
      "type": "function"
    },
    {
      "inputs": [],
      "name": "withdraw",
      "outputs": [],
      "stateMutability": "nonpayable",
      "type": "function"
    },
    {
      "stateMutability": "payable",
      "type": "receive"
    }
  ],
  "bytecode": "60a060405234801561001057600080fd5b5060405161078438038061078483398101604081905261002f91610058565b600280546001600160a01b0319166001600160a01b039290921691909117905533608052610088565b60006020828403121561006a57600080fd5b81516001600160a01b038116811461008157600080fd5b9392505050565b6080516106da6100aa60003960008181610148015261032c01526106da6000f3fe60806040526004361061008a5760003560e01c80638da5cb5b116100595780638da5cb5b14610136578063a76568d01461016a578063b60d428814610099578063dc0d3dff14610197578063eb2aae5c146101b757610099565b80632cce0c60146100a15780633ccfd60b146100c95780634eb52e32146100de578063741bef1a146100fe57610099565b36610099576100976101d3565b005b6100976101d3565b3480156100ad57600080fd5b506100b661029c565b6040519081526020015b60405180910390f35b3480156100d557600080fd5b50610097610321565b3480156100ea57600080fd5b506100b66100f9366004610555565b61046e565b34801561010a57600080fd5b5060025461011e906001600160a01b031681565b6040516001600160a01b0390911681526020016100c0565b34801561014257600080fd5b5061011e7f000000000000000000000000000000000000000000000000000000000000000081565b34801561017657600080fd5b506100b661018536600461056e565b60016020526000908152604090205481565b3480156101a357600080fd5b5061011e6101b2366004610555565b6104b1565b3480156101c357600080fd5b506100b6671bc16d674ec8000081565b34671bc16d674ec800006101e68261046e565b10156102395760405162461bcd60e51b815260206004820152601860248201527f4469646e27742073656e7420656e6f756768206d6f6e6579000000000000000060448201526064015b60405180910390fd5b60008054600181810183557f290decd9548b62a8d60345a988386fc84ba6bc95484008f6362f93160ef3e56390910180546001600160a01b0319163390811790915582526020526040812080548392906102949084906105b4565b909155505050565b600080600260009054906101000a90046001600160a01b03166001600160a01b031663feaf968c6040518163ffffffff1660e01b815260040160a060405180830381865afa1580156102f2573d6000803e3d6000fd5b505050506040513d601f19601f8201168201806040525081019061031691906105ec565b509195945050505050565b336001600160a01b037f0000000000000000000000000000000000000000000000000000000000000000161461036a57604051637e082d0560e01b815260040160405180910390fd5b60005b6000548110156103c65760006001600080848154811061038f5761038f61063c565b60009182526020808320909101546001600160a01b03168352820192909252604001902055806103be81610652565b91505061036d565b50604080516000808252602082019283905290516103e492906104db565b50604051600090339047908381818185875af1925050503d8060008114610427576040519150601f19603f3d011682016040523d82523d6000602084013e61042c565b606091505b505090508061046b5760405162461bcd60e51b815260206004820152600b60248201526a18d85b1b0819985a5b195960aa1b6044820152606401610230565b50565b60008061047961029c565b610488906402540be40061066b565b90506000670de0b6b3a764000061049f838661066b565b6104a99190610682565b949350505050565b600081815481106104c157600080fd5b6000918252602090912001546001600160a01b0316905081565b828054828255906000526020600020908101928215610530579160200282015b8281111561053057825182546001600160a01b0319166001600160a01b039091161782556020909201916001909101906104fb565b5061053c929150610540565b5090565b5b8082111561053c5760008155600101610541565b60006020828403121561056757600080fd5b5035919050565b60006020828403121561058057600080fd5b81356001600160a01b038116811461059757600080fd5b9392505050565b634e487b7160e01b600052601160045260246000fd5b808201808211156105c7576105c761059e565b92915050565b805169ffffffffffffffffffff811681146105e757600080fd5b919050565b600080600080600060a0868803121561060457600080fd5b61060d866105cd565b9450602086015193506040860151925060608601519150610630608087016105cd565b90509295509295909350565b634e487b7160e01b600052603260045260246000fd5b6000600182016106645761066461059e565b5060010190565b80820281158282048414176105c7576105c761059e565b60008261069f57634e487b7160e01b600052601260045260246000fd5b50049056fea2646970667358221220c75a0199f778805654498e05c9142101c1396fc496207ec01d85deac9585a7cc64736f6c63430008110033",
  "bytecodeSha1": "ac24a3ece437c7322ce6f34cae5de244a0563356",
  "compiler": {
    "evm_version": "istanbul",
    "optimizer": {
      "enabled": true,
      "runs": 200
    },
    "version": "0.8.17+commit.8df45f5f"
  },
  "contractName": "Fundme",
  "language": "Solidity",
  "natspec": {
    "kind": "dev",
    "methods": {},
    "version": 1
  },
  "opcodes": "PUSH1 0x80 PUSH1 0x40 MSTORE PUSH1 0x4 CALLDATASIZE LT PUSH2 0x8A JUMPI PUSH1 0x0 CALLDATALOAD PUSH1 0xE0 SHR DUP1 PUSH4 0x8DA5CB5B GT PUSH2 0x59 JUMPI DUP1 PUSH4 0x8DA5CB5B EQ PUSH2 0x136 JUMPI DUP1 PUSH4 0xA76568D0 EQ PUSH2 0x16A JUMPI DUP1 PUSH4 0xB60D4288 EQ PUSH2 0x99 JUMPI DUP1 PUSH4 0xDC0D3DFF EQ PUSH2 0x197 JUMPI DUP1 PUSH4 0xEB2AAE5C EQ PUSH2 0x1B7 JUMPI PUSH2 0x99 JUMP JUMPDEST DUP1 PUSH4 0x2CCE0C60 EQ PUSH2 0xA1 JUMPI DUP1 PUSH4 0x3CCFD60B EQ PUSH2 0xC9 JUMPI DUP1 PUSH4 0x4EB52E32 EQ PUSH2 0xDE JUMPI DUP1 PUSH4 0x741BEF1A EQ PUSH2 0xFE JUMPI PUSH2 0x99 JUMP JUMPDEST CALLDATASIZE PUSH2 0x99 JUMPI PUSH2 0x97 PUSH2 0x1D3 JUMP JUMPDEST STOP JUMPDEST PUSH2 0x97 PUSH2 0x1D3 JUMP JUMPDEST CALLVALUE DUP1 ISZERO PUSH2 0xAD JUMPI PUSH1 0x0 DUP1 REVERT JUMPDEST POP PUSH2 0xB6 PUSH2 0x29C JUMP JUMPDEST PUSH1 0x40 MLOAD SWAP1 DUP2 MSTORE PUSH1 0x20 ADD JUMPDEST PUSH1 0x40 MLOAD DUP1 SWAP2 SUB SWAP1 RETURN JUMPDEST CALLVALUE DUP1 ISZERO PUSH2 0xD5 JUMPI PUSH1 0x0 DUP1 REVERT JUMPDEST POP PUSH2 0x97 PUSH2 0x321 JUMP JUMPDEST CALLVALUE DUP1 ISZERO PUSH2 0xEA JUMPI PUSH1 0x0 DUP1 REVERT JUMPDEST POP PUSH2 0xB6 PUSH2 0xF9 CALLDATASIZE PUSH1 0x4 PUSH2 0x555 JUMP JUMPDEST PUSH2 0x46E JUMP JUMPDEST CALLVALUE DUP1 ISZERO PUSH2 0x10A JUMPI PUSH1 0x0 DUP1 REVERT JUMPDEST POP PUSH1 0x2 SLOAD PUSH2 0x11E SWAP1 PUSH1 0x1 PUSH1 0x1 PUSH1 0xA0 SHL SUB AND DUP2 JUMP JUMPDEST PUSH1 0x40 MLOAD PUSH1 0x1 PUSH1 0x1 PUSH1 0xA0 SHL SUB SWAP1 SWAP2 AND DUP2 MSTORE PUSH1 0x20 ADD PUSH2 0xC0 JUMP JUMPDEST CALLVALUE DUP1 ISZERO PUSH2 0x142 JUMPI PUSH1 0x0 DUP1 REVERT JUMPDEST POP PUSH2 0x11E PUSH32 0x0 DUP2 JUMP JUMPDEST CALLVALUE DUP1 ISZERO PUSH2 0x176 JUMPI PUSH1 0x0 DUP1 REVERT JUMPDEST POP PUSH2 0xB6 PUSH2 0x185 CALLDATASIZE PUSH1 0x4 PUSH2 0x56E JUMP JUMPDEST PUSH1 0x1 PUSH1 0x20 MSTORE PUSH1 0x0 SWAP1 DUP2 MSTORE PUSH1 0x40 SWAP1 KECCAK256 SLOAD DUP2 JUMP JUMPDEST CALLVALUE DUP1 ISZERO PUSH2 0x1A3 JUMPI PUSH1 0x0 DUP1 REVERT JUMPDEST POP PUSH2 0x11E PUSH2 0x1B2 CALLDATASIZE PUSH1 0x4 PUSH2 0x555 JUMP JUMPDEST PUSH2 0x4B1 JUMP JUMPDEST CALLVALUE DUP1 ISZERO PUSH2 0x1C3 JUMPI PUSH1 0x0 DUP1 REVERT JUMPDEST POP PUSH2 0xB6 PUSH8 0x1BC16D674EC80000 DUP2 JUMP JUMPDEST CALLVALUE PUSH8 0x1BC16D674EC80000 PUSH2 0x1E6 DUP3 PUSH2 0x46E JUMP JUMPDEST LT ISZERO PUSH2 0x239 JUMPI PUSH1 0x40 MLOAD PUSH3 0x461BCD PUSH1 0xE5 SHL DUP2 MSTORE PUSH1 0x20 PUSH1 0x4 DUP3 ADD MSTORE PUSH1 0x18 PUSH1 0x24 DUP3 ADD MSTORE PUSH32 0x4469646E27742073656E7420656E6F756768206D6F6E65790000000000000000 PUSH1 0x44 DUP3 ADD MSTORE PUSH1 0x64 ADD JUMPDEST PUSH1 0x40 MLOAD DUP1 SWAP2 SUB SWAP1 REVERT JUMPDEST PUSH1 0x0 DUP1 SLOAD PUSH1 0x1 DUP2 DUP2 ADD DUP4 SSTORE PUSH32 0x290DECD9548B62A8D60345A988386FC84BA6BC95484008F6362F93160EF3E563 SWAP1 SWAP2 ADD DUP1 SLOAD PUSH1 0x1 PUSH1 0x1 PUSH1 0xA0 SHL SUB NOT AND CALLER SWAP1 DUP2 OR SWAP1 SWAP2 SSTORE DUP3 MSTORE PUSH1 0x20 MSTORE PUSH1 0x40 DUP2 KECCAK256 DUP1 SLOAD DUP4 SWAP3 SWAP1 PUSH2 0x294 SWAP1 DUP5 SWAP1 PUSH2 0x5B4 JUMP JUMPDEST SWAP1 SWAP2 SSTORE POP POP POP JUMP JUMPDEST PUSH1 0x0 DUP1 PUSH1 0x2 PUSH1 0x0 SWAP1 SLOAD SWAP1 PUSH2 0x100 EXP SWAP1 DIV PUSH1 0x1 PUSH1 0x1 PUSH1 0xA0 SHL SUB AND PUSH1 0x1 PUSH1 0x1 PUSH1 0xA0 SHL SUB AND PUSH4 0xFEAF968C PUSH1 0x40 MLOAD DUP2 PUSH4 0xFFFFFFFF AND PUSH1 0xE0 SHL DUP2 MSTORE PUSH1 0x4 ADD PUSH1 0xA0 PUSH1 0x40 MLOAD DUP1 DUP4 SUB DUP2 DUP7 GAS STATICCALL ISZERO DUP1 ISZERO PUSH2 0x2F2 JUMPI RETURNDATASIZE PUSH1 0x0 DUP1 RETURNDATACOPY RETURNDATASIZE PUSH1 0x0 REVERT JUMPDEST POP POP POP POP PUSH1 0x40 MLOAD RETURNDATASIZE PUSH1 0x1F NOT PUSH1 0x1F DUP3 ADD AND DUP3 ADD DUP1 PUSH1 0x40 MSTORE POP DUP2 ADD SWAP1 PUSH2 0x316 SWAP2 SWAP1 PUSH2 0x5EC JUMP JUMPDEST POP SWAP2 SWAP6 SWAP5 POP POP POP POP POP JUMP JUMPDEST CALLER PUSH1 0x1 PUSH1 0x1 PUSH1 0xA0 SHL SUB PUSH32 0x0 AND EQ PUSH2 0x36A JUMPI PUSH1 0x40 MLOAD PUSH4 0x7E082D05 PUSH1 0xE0 SHL DUP2 MSTORE PUSH1 0x4 ADD PUSH1 0x40 MLOAD DUP1 SWAP2 SUB SWAP1 REVERT JUMPDEST PUSH1 0x0 JUMPDEST PUSH1 0x0 SLOAD DUP2 LT ISZERO PUSH2 0x3C6 JUMPI PUSH1 0x0 PUSH1 0x1 PUSH1 0x0 DUP1 DUP5 DUP2 SLOAD DUP2 LT PUSH2 0x38F JUMPI PUSH2 0x38F PUSH2 0x63C JUMP JUMPDEST PUSH1 0x0 SWAP2 DUP3 MSTORE PUSH1 0x20 DUP1 DUP4 KECCAK256 SWAP1 SWAP2 ADD SLOAD PUSH1 0x1 PUSH1 0x1 PUSH1 0xA0 SHL SUB AND DUP4 MSTORE DUP3 ADD SWAP3 SWAP1 SWAP3 MSTORE PUSH1 0x40 ADD SWAP1 KECCAK256 SSTORE DUP1 PUSH2 0x3BE DUP2 PUSH2 0x652 JUMP JUMPDEST SWAP2 POP POP PUSH2 0x36D JUMP JUMPDEST POP PUSH1 0x40 DUP1 MLOAD PUSH1 0x0 DUP1 DUP3 MSTORE PUSH1 0x20 DUP3 ADD SWAP3 DUP4 SWAP1 MSTORE SWAP1 MLOAD PUSH2 0x3E4 SWAP3 SWAP1 PUSH2 0x4DB JUMP JUMPDEST POP PUSH1 0x40 MLOAD PUSH1 0x0 SWAP1 CALLER SWAP1 SELFBALANCE SWAP1 DUP4 DUP2 DUP2 DUP2 DUP6 DUP8 GAS CALL SWAP3 POP POP POP RETURNDATASIZE DUP1 PUSH1 0x0 DUP2 EQ PUSH2 0x427 JUMPI PUSH1 0x40 MLOAD SWAP2 POP PUSH1 0x1F NOT PUSH1 0x3F RETURNDATASIZE ADD AND DUP3 ADD PUSH1 0x40 MSTORE RETURNDATASIZE DUP3 MSTORE RETURNDATASIZE PUSH1 0x0 PUSH1 0x20 DUP5 ADD RETURNDATACOPY PUSH2 0x42C JUMP JUMPDEST PUSH1 0x60 SWAP2 POP JUMPDEST POP POP SWAP1 POP DUP1 PUSH2 0x46B JUMPI PUSH1 0x40 MLOAD PUSH3 0x461BCD PUSH1 0xE5 SHL DUP2 MSTORE PUSH1 0x20 PUSH1 0x4 DUP3 ADD MSTORE PUSH1 0xB PUSH1 0x24 DUP3 ADD MSTORE PUSH11 0x18D85B1B0819985A5B1959 PUSH1 0xAA SHL PUSH1 0x44 DUP3 ADD MSTORE PUSH1 0x64 ADD PUSH2 0x230 JUMP JUMPDEST POP JUMP JUMPDEST PUSH1 0x0 DUP1 PUSH2 0x479 PUSH2 0x29C JUMP JUMPDEST PUSH2 0x488 SWAP1 PUSH5 0x2540BE400 PUSH2 0x66B JUMP JUMPDEST SWAP1 POP PUSH1 0x0 PUSH8 0xDE0B6B3A7640000 PUSH2 0x49F DUP4 DUP7 PUSH2 0x66B JUMP JUMPDEST PUSH2 0x4A9 SWAP2 SWAP1 PUSH2 0x682 JUMP JUMPDEST SWAP5 SWAP4 POP POP POP POP JUMP JUMPDEST PUSH1 0x0 DUP2 DUP2 SLOAD DUP2 LT PUSH2 0x4C1 JUMPI PUSH1 0x0 DUP1 REVERT JUMPDEST PUSH1 0x0 SWAP2 DUP3 MSTORE PUSH1 0x20 SWAP1 SWAP2 KECCAK256 ADD SLOAD PUSH1 0x1 PUSH1 0x1 PUSH1 0xA0 SHL SUB AND SWAP1 POP DUP2 JUMP JUMPDEST DUP3 DUP1 SLOAD DUP3 DUP3 SSTORE SWAP1 PUSH1 0x0 MSTORE PUSH1 0x20 PUSH1 0x0 KECCAK256 SWAP1 DUP2 ADD SWAP3 DUP3 ISZERO PUSH2 0x530 JUMPI SWAP2 PUSH1 0x20 MUL DUP3 ADD JUMPDEST DUP3 DUP2 GT ISZERO PUSH2 0x530 JUMPI DUP3 MLOAD DUP3 SLOAD PUSH1 0x1 PUSH1 0x1 PUSH1 0xA0 SHL SUB NOT AND PUSH1 0x1 PUSH1 0x1 PUSH1 0xA0 SHL SUB SWAP1 SWAP2 AND OR DUP3 SSTORE PUSH1 0x20 SWAP1 SWAP3 ADD SWAP2 PUSH1 0x1 SWAP1 SWAP2 ADD SWAP1 PUSH2 0x4FB JUMP JUMPDEST POP PUSH2 0x53C SWAP3 SWAP2 POP PUSH2 0x540 JUMP JUMPDEST POP SWAP1 JUMP JUMPDEST JUMPDEST DUP1 DUP3 GT ISZERO PUSH2 0x53C JUMPI PUSH1 0x0 DUP2 SSTORE PUSH1 0x1 ADD PUSH2 0x541 JUMP JUMPDEST PUSH1 0x0 PUSH1 0x20 DUP3 DUP5 SUB SLT ISZERO PUSH2 0x567 JUMPI PUSH1 0x0 DUP1 REVERT JUMPDEST POP CALLDATALOAD SWAP2 SWAP1 POP JUMP JUMPDEST PUSH1 0x0 PUSH1 0x20 DUP3 DUP5 SUB SLT ISZERO PUSH2 0x580 JUMPI PUSH1 0x0 DUP1 REVERT JUMPDEST DUP2 CALLDATALOAD PUSH1 0x1 PUSH1 0x1 PUSH1 0xA0 SHL SUB DUP2 AND DUP2 EQ PUSH2 0x597 JUMPI PUSH1 0x0 DUP1 REVERT JUMPDEST SWAP4 SWAP3 POP POP POP JUMP JUMPDEST PUSH4 0x4E487B71 PUSH1 0xE0 SHL PUSH1 0x0 MSTORE PUSH1 0x11 PUSH1 0x4 MSTORE PUSH1 0x24 PUSH1 0x0 REVERT JUMPDEST DUP1 DUP3 ADD DUP1 DUP3 GT ISZERO PUSH2 0x5C7 JUMPI PUSH2 0x5C7 PUSH2 0x59E JUMP JUMPDEST SWAP3 SWAP2 POP POP JUMP JUMPDEST DUP1 MLOAD PUSH10 0xFFFFFFFFFFFFFFFFFFFF DUP2 AND DUP2 EQ PUSH2 0x5E7 JUMPI PUSH1 0x0 DUP1 REVERT JUMPDEST SWAP2 SWAP1 POP JUMP JUMPDEST PUSH1 0x0 DUP1 PUSH1 0x0 DUP1 PUSH1 0x0 PUSH1 0xA0 DUP7 DUP9 SUB SLT ISZERO PUSH2 0x604 JUMPI PUSH1 0x0 DUP1 REVERT JUMPDEST PUSH2 0x60D DUP7 PUSH2 0x5CD JUMP JUMPDEST SWAP5 POP PUSH1 0x20 DUP7 ADD MLOAD SWAP4 POP PUSH1 0x40 DUP7 ADD MLOAD SWAP3 POP PUSH1 0x60 DUP7 ADD MLOAD SWAP2 POP PUSH2 0x630 PUSH1 0x80 DUP8 ADD PUSH2 0x5CD JUMP JUMPDEST SWAP1 POP SWAP3 SWAP6 POP SWAP3 SWAP6 SWAP1 SWAP4 POP JUMP JUMPDEST PUSH4 0x4E487B71 PUSH1 0xE0 SHL PUSH1 0x0 MSTORE PUSH1 0x32 PUSH1 0x4 MSTORE PUSH1 0x24 PUSH1 0x0 REVERT JUMPDEST PUSH1 0x0 PUSH1 0x1 DUP3 ADD PUSH2 0x664 JUMPI PUSH2 0x664 PUSH2 0x59E JUMP JUMPDEST POP PUSH1 0x1 ADD SWAP1 JUMP JUMPDEST DUP1 DUP3 MUL DUP2 ISZERO DUP3 DUP3 DIV DUP5 EQ OR PUSH2 0x5C7 JUMPI PUSH2 0x5C7 PUSH2 0x59E JUMP JUMPDEST PUSH1 0x0 DUP3 PUSH2 0x69F JUMPI PUSH4 0x4E487B71 PUSH1 0xE0 SHL PUSH1 0x0 MSTORE PUSH1 0x12 PUSH1 0x4 MSTORE PUSH1 0x24 PUSH1 0x0 REVERT JUMPDEST POP DIV SWAP1 JUMP INVALID LOG2 PUSH5 0x6970667358 0x22 SLT KECCAK256 0xC7 GAS ADD SWAP10 0xF7 PUSH25 0x805654498E05C9142101C1396FC496207EC01D85DEAC9585A7 0xCC PUSH5 0x736F6C6343 STOP ADDMOD GT STOP CALLER ",
  "sha1": "febe37b758fc223de178844c56e3b2efa623a524",
  "source": "// SPDX-License-Identifier: MIT\n\npragma solidity ^0.8.0;\n\n//in this contract i am going to create a funding function in which you can give money to me but i want money more\n//than only 50 dollars -> so i want to convert that $50 to equivalent amount of ether or wei or wei that we are going to\n//give in the value section-> so how will i get todays ethereum price->so i want to connect to oracles or chainlink\n//which gives me the data what i want -> with that i am going to do basic math and uint and int type casting\n\n// https://github.com/smartcontractkit/chainlink-brownie-contracts we took the below chainlink from this github repo\n//now we are going to verify this contract in etherscan for that etherscan it cannot unzip or read @chainlink so we need to paste the whole code here but brownie has a cool feature\n// for that we need to create the API key from etherscan and we are adding that in the environment variable **export ETHERSCAN_TOKEN = SD8V3N8YAGHBW7AUX33IQMSU8H2M4D7UAB** and browine will verfiy the contract\nimport \"@chainlink/contracts/src/v0.8/interfaces/AggregatorV3Interface.sol\"; //remix can read this but brownie cannot so add dependies and remapping from brownie-config.yaml\n\n// import \"./Converterlib.sol\";\n\nerror Notowner(); // gas efficiency\n\ncontract Fundme {\n    // using Converter for uint256;\n    uint256 public constant min_USD = 2 * 1e18; //gas efficiency\n    address[] public funders; // an array to store who all funded to our System\n    mapping(address => uint256) public funder_amount; // map to store how much who funded\n    address public immutable owner; //gas efficiency\n    AggregatorV3Interface public priceFeed;\n\n    constructor(address _pricefeed) {\n        priceFeed = AggregatorV3Interface(_pricefeed);\n        owner = msg.sender;\n    }\n\n    function convert_eth_to_usd(uint256 value_wei)\n        public\n        view\n        returns (uint256)\n    {\n        uint256 one_eth_usd = eth_to_usd() * 1e10;\n        uint256 total_usd = (value_wei * one_eth_usd) / 1e18; //because we are multiplying with two 10e18 so we need to divide with one 10e18\n        return total_usd;\n    }\n\n    function eth_to_usd() public view returns (uint256) {\n        //for this function we need to connect with chainlink to get data so use priceConsumerV3.sol in https://docs.chain.link/docs/data-feeds/price-feeds/\n        //-> in that we imported that set of code from github using npm\n        //we need address of goerli in which this priceconverted is deployed - Address: 0xD4a33860578De61DBAbDc8BFdb98FD742fA7028e\n        //then we need the ABI - so we are importing the code from the github and we are using\n\n        // AggregatorV3Interface priceFeed = AggregatorV3Interface(\n        //     0xD4a33860578De61DBAbDc8BFdb98FD742fA7028e\n        // ); //this part was hardcoded for these kind of things we can go 1.forking into 2chains but not advisable 2.Moking it is  being used by many of the comapany also where you will create a whole functionality of the Agreegartor for using it locally\n        (\n            ,\n            /*uint80 roundID*/\n            int256 price, /*uint startedAt*/ /*uint timeStamp*/ /*uint80 answeredInRound*/\n            ,\n            ,\n\n        ) = priceFeed.latestRoundData();\n        return uint256(price); //typecasting because msg.value is in the form of uint so we want to maintain uint and this returns with 8 decimal place appended with it\n    }\n\n    function fund() public payable {\n        //we are adding funds to the contract\n        uint256 value_wei = msg.value;\n        // require(value_wei>=min_USD,\"Didn't sent enough money\");\n        require(\n            convert_eth_to_usd(value_wei) >= min_USD,\n            \"Didn't sent enough money\"\n        );\n        // require(\n        //     value_wei.convert_eth_to_usd() >= min_USD,\n        //     \"Didn't sent enough money\"\n        // ); //because of this error UndeployedLibrary: Contract requires 'Converter' library, but it has not been deployed yet\n        funders.push(msg.sender);\n        funder_amount[msg.sender] += value_wei;\n    }\n\n    function withdraw() public onlyOwner {\n        for (uint256 i = 0; i < funders.length; i++) {\n            funder_amount[funders[i]] = 0;\n        }\n        funders = new address[](0); //this tell the array has zero objects\n        //now we will reduce that money from the contract also\n        // there are three method to do that 1.transfer 2.send 3.call\n        //transfer (2300 gas, throws error)\n        // send (2300 gas, returns bool)\n        // call (forward all gas or set gas, returns bool) return bool and calldata ->we are going to use this only\n        // // transfer\n        // payable(msg.sender).transfer(address(this).balance);\n        // // send\n        // bool sendSuccess = payable(msg.sender).send(address(this).balance);\n        // require(sendSuccess, \"Send failed\");\n        // call\n        (bool callSuccess, ) = payable(msg.sender).call{\n            value: address(this).balance\n        }(\"\");\n        require(callSuccess, \"call failed\");\n    }\n\n    modifier onlyOwner() {\n        //require(msg.sender== owner,\"only owner can access this part of contract\");\n        if (msg.sender != owner) revert Notowner();\n        _;\n    }\n\n    //this recieve and fallback used to use from metamask itself it fund itself is not called\n    receive() external payable {\n        fund();\n    }\n\n    fallback() external payable {\n        fund();\n    }\n}\n",
  "sourcePath": "contracts/Fundme.sol",
  "type": "contract"
}